:100000000C9434000C943E000C943E000C943E0082
:100010000C943E000C943E000C943E000C943E0068
:100020000C943E000C943E000C943E000C943E0058
:100030000C943E000C943E000C943E000C943E0048
:100040000C943E000C943E000C943E000C943E0038
:100050000C943E000C943E000C943E000C943E0028
:100060000C943E000C943E0011241FBECFEFD8E04C
:10007000DEBFCDBF0E9440000C9458000C940000DD
:1000800080EF8AB91BB88BB92FEF39E698E1215080
:1000900030409040E1F700C000001BB82FEF39E678
:1000A00098E1215030409040E1F700C00000EBCFD4
:0400B000F894FFCFF2
:00000001FF
